:100000000C943E000C9448000C9448000C9448005A
:100010000C9448000C9448000C9448000C94480040
:100020000C9448000C9448000C9448000C94480030
:100030000C9448000C9448000C9448000C94480020
:100040000C9448000C9448000C9448000C94480010
:100050000C9448000C9448000C9448000C94480000
:100060000C9448000C9448000C9448000C944800F0
:100070000C9448000C9448000C94480011241FBEB6
:10008000CFEFD8E0DEBFCDBF0E9455000C946D01CC
:100090000C940000009741F0EFECF7E03197F1F796
:1000A00000C000000197F6CF08958FEF81B984B9A1
:1000B00087B91AB815B8C0E0C12CD12C7601D1E0AF
:1000C000CC23A1F0D5B9C701B6010E94ED00CB0148
:1000D0000E944A00CD2720E030E040E851E4C7010B
:1000E000B6010E9481006B017C01EACF15B8A7011F
:1000F000960160E070E080E891E40E948000E5CF26
:100100005058BB27AA270E9498000C9433010E94E4
:10011000250138F00E942C0120F039F49F3F19F49A
:1001200026F40C9422010EF4E095E7FB0C941C01DC
:10013000E92F0E94440158F3BA1762077307840736
:10014000950720F079F4A6F50C9466010EF4E0957D
:100150000B2EBA2FA02D0B01B90190010C01CA0181
:10016000A0011124FF27591B99F0593F50F4503E2C
:1001700068F11A16F040A22F232F342F4427585F1E
:10018000F3CF469537952795A795F0405395C9F736
:100190007EF41F16BA0B620B730B840BBAF09150EE
:1001A000A1F0FF0FBB1F661F771F881FC2F70EC08D
:1001B000BA0F621F731F841F48F487957795679560
:1001C000B795F7959E3F08F0B0CF9395880F08F04C
:1001D0009927EE0F9795879508950E944C0188F016
:1001E0009F5798F0B92F9927B751B0F0E1F0660FFB
:1001F000771F881F991F1AF0BA95C9F714C0B1303C
:1002000091F00E946601B1E008950C946601672F99
:10021000782F8827B85F39F0B93FCCF3869577956A
:100220006795B395D9F73EF4909580957095619553
:100230007F4F8F4F9F4F089597F99F6780E870E039
:1002400060E008959FEF80EC089500240A9416164C
:10025000170618060906089500240A9412161306B4
:10026000140605060895092E0394000C11F4882342
:1002700052F0BB0F40F4BF2B11F460FF04C06F5F5E
:100280007F4F8F4F9F4F089557FD9058440F551F34
:1002900059F05F3F71F04795880F97FB991F61F008
:1002A0009F3F79F087950895121613061406551F7F
:1002B000F2CF4695F1DF08C0161617061806991FEB
:1002C000F1CF86957105610508940895E894BB27E0
:0E02D00066277727CB0197F90895F894FFCFA2
:00000001FF
